{
	"5_visibilityand inheritence.sol": {
		"Child": {
			"abi": [
				{
					"inputs": [],
					"name": "getAllVal",
					"outputs": [
						{
							"internalType": "int256",
							"name": "",
							"type": "int256"
						}
					],
					"stateMutability": "view",
					"type": "function"
				},
				{
					"inputs": [],
					"name": "getAllVal2",
					"outputs": [
						{
							"internalType": "int256",
							"name": "",
							"type": "int256"
						}
					],
					"stateMutability": "view",
					"type": "function"
				},
				{
					"inputs": [],
					"name": "publicval",
					"outputs": [
						{
							"internalType": "int256",
							"name": "",
							"type": "int256"
						}
					],
					"stateMutability": "view",
					"type": "function"
				}
			],
			"devdoc": {
				"kind": "dev",
				"methods": {},
				"version": 1
			},
			"evm": {
				"assembly": "    /* \"5_visibilityand inheritence.sol\":743:916  contract Child is Parent{... */\n  mstore(0x40, 0x80)\n    /* \"5_visibilityand inheritence.sol\":517:519  10 */\n  0x0a\n    /* \"5_visibilityand inheritence.sol\":495:519  int public publicval =10 */\n  0x00\n  sstore\n    /* \"5_visibilityand inheritence.sol\":551:553  20 */\n  0x14\n    /* \"5_visibilityand inheritence.sol\":526:553  int internal internalval=20 */\n  0x01\n  sstore\n    /* \"5_visibilityand inheritence.sol\":583:585  30 */\n  0x1e\n    /* \"5_visibilityand inheritence.sol\":560:585  int private privateval=30 */\n  0x02\n  sstore\n    /* \"5_visibilityand inheritence.sol\":743:916  contract Child is Parent{... */\n  callvalue\n  dup1\n  iszero\n  tag_1\n  jumpi\n  0x00\n  dup1\n  revert\ntag_1:\n  pop\n  dataSize(sub_0)\n  dup1\n  dataOffset(sub_0)\n  0x00\n  codecopy\n  0x00\n  return\nstop\n\nsub_0: assembly {\n        /* \"5_visibilityand inheritence.sol\":743:916  contract Child is Parent{... */\n      mstore(0x40, 0x80)\n      callvalue\n      dup1\n      iszero\n      tag_1\n      jumpi\n      0x00\n      dup1\n      revert\n    tag_1:\n      pop\n      jumpi(tag_2, lt(calldatasize, 0x04))\n      shr(0xe0, calldataload(0x00))\n      dup1\n      0x663fd677\n      eq\n      tag_3\n      jumpi\n      dup1\n      0x8ee1aea3\n      eq\n      tag_4\n      jumpi\n      dup1\n      0xee533b8b\n      eq\n      tag_5\n      jumpi\n    tag_2:\n      0x00\n      dup1\n      revert\n        /* \"5_visibilityand inheritence.sol\":495:519  int public publicval =10 */\n    tag_3:\n      tag_6\n      tag_7\n      jump\t// in\n    tag_6:\n      mload(0x40)\n      tag_8\n      swap2\n      swap1\n      tag_9\n      jump\t// in\n    tag_8:\n      mload(0x40)\n      dup1\n      swap2\n      sub\n      swap1\n      return\n        /* \"5_visibilityand inheritence.sol\":774:913  function getAllVal2() public view returns(int){... */\n    tag_4:\n      tag_10\n      tag_11\n      jump\t// in\n    tag_10:\n      mload(0x40)\n      tag_12\n      swap2\n      swap1\n      tag_9\n      jump\t// in\n    tag_12:\n      mload(0x40)\n      dup1\n      swap2\n      sub\n      swap1\n      return\n        /* \"5_visibilityand inheritence.sol\":594:697  function getAllVal() public view returns(int){... */\n    tag_5:\n      tag_13\n      tag_14\n      jump\t// in\n    tag_13:\n      mload(0x40)\n      tag_15\n      swap2\n      swap1\n      tag_9\n      jump\t// in\n    tag_15:\n      mload(0x40)\n      dup1\n      swap2\n      sub\n      swap1\n      return\n        /* \"5_visibilityand inheritence.sol\":495:519  int public publicval =10 */\n    tag_7:\n      sload(0x00)\n      dup2\n      jump\t// out\n        /* \"5_visibilityand inheritence.sol\":774:913  function getAllVal2() public view returns(int){... */\n    tag_11:\n        /* \"5_visibilityand inheritence.sol\":816:819  int */\n      0x00\n        /* \"5_visibilityand inheritence.sol\":894:905  internalval */\n      sload(0x01)\n        /* \"5_visibilityand inheritence.sol\":883:892  publicval */\n      sload(0x00)\n        /* \"5_visibilityand inheritence.sol\":883:905  publicval+ internalval */\n      tag_17\n      swap2\n      swap1\n      tag_18\n      jump\t// in\n    tag_17:\n        /* \"5_visibilityand inheritence.sol\":876:905  return publicval+ internalval */\n      swap1\n      pop\n        /* \"5_visibilityand inheritence.sol\":774:913  function getAllVal2() public view returns(int){... */\n      swap1\n      jump\t// out\n        /* \"5_visibilityand inheritence.sol\":594:697  function getAllVal() public view returns(int){... */\n    tag_14:\n        /* \"5_visibilityand inheritence.sol\":635:638  int */\n      0x00\n        /* \"5_visibilityand inheritence.sol\":679:689  privateval */\n      sload(0x02)\n        /* \"5_visibilityand inheritence.sol\":667:678  internalval */\n      sload(0x01)\n        /* \"5_visibilityand inheritence.sol\":657:666  publicval */\n      sload(0x00)\n        /* \"5_visibilityand inheritence.sol\":657:678  publicval+internalval */\n      tag_20\n      swap2\n      swap1\n      tag_18\n      jump\t// in\n    tag_20:\n        /* \"5_visibilityand inheritence.sol\":657:689  publicval+internalval+privateval */\n      tag_21\n      swap2\n      swap1\n      tag_18\n      jump\t// in\n    tag_21:\n        /* \"5_visibilityand inheritence.sol\":650:689  return publicval+internalval+privateval */\n      swap1\n      pop\n        /* \"5_visibilityand inheritence.sol\":594:697  function getAllVal() public view returns(int){... */\n      swap1\n      jump\t// out\n        /* \"#utility.yul\":7:83   */\n    tag_22:\n        /* \"#utility.yul\":43:50   */\n      0x00\n        /* \"#utility.yul\":72:77   */\n      dup2\n        /* \"#utility.yul\":61:77   */\n      swap1\n      pop\n        /* \"#utility.yul\":7:83   */\n      swap2\n      swap1\n      pop\n      jump\t// out\n        /* \"#utility.yul\":89:204   */\n    tag_23:\n        /* \"#utility.yul\":174:197   */\n      tag_28\n        /* \"#utility.yul\":191:196   */\n      dup2\n        /* \"#utility.yul\":174:197   */\n      tag_22\n      jump\t// in\n    tag_28:\n        /* \"#utility.yul\":169:172   */\n      dup3\n        /* \"#utility.yul\":162:198   */\n      mstore\n        /* \"#utility.yul\":89:204   */\n      pop\n      pop\n      jump\t// out\n        /* \"#utility.yul\":210:428   */\n    tag_9:\n        /* \"#utility.yul\":301:305   */\n      0x00\n        /* \"#utility.yul\":339:341   */\n      0x20\n        /* \"#utility.yul\":328:337   */\n      dup3\n        /* \"#utility.yul\":324:342   */\n      add\n        /* \"#utility.yul\":316:342   */\n      swap1\n      pop\n        /* \"#utility.yul\":352:421   */\n      tag_30\n        /* \"#utility.yul\":418:419   */\n      0x00\n        /* \"#utility.yul\":407:416   */\n      dup4\n        /* \"#utility.yul\":403:420   */\n      add\n        /* \"#utility.yul\":394:400   */\n      dup5\n        /* \"#utility.yul\":352:421   */\n      tag_23\n      jump\t// in\n    tag_30:\n        /* \"#utility.yul\":210:428   */\n      swap3\n      swap2\n      pop\n      pop\n      jump\t// out\n        /* \"#utility.yul\":434:614   */\n    tag_24:\n        /* \"#utility.yul\":482:559   */\n      0x4e487b7100000000000000000000000000000000000000000000000000000000\n        /* \"#utility.yul\":479:480   */\n      0x00\n        /* \"#utility.yul\":472:560   */\n      mstore\n        /* \"#utility.yul\":579:583   */\n      0x11\n        /* \"#utility.yul\":576:577   */\n      0x04\n        /* \"#utility.yul\":569:584   */\n      mstore\n        /* \"#utility.yul\":603:607   */\n      0x24\n        /* \"#utility.yul\":600:601   */\n      0x00\n        /* \"#utility.yul\":593:608   */\n      revert\n        /* \"#utility.yul\":620:995   */\n    tag_18:\n        /* \"#utility.yul\":659:662   */\n      0x00\n        /* \"#utility.yul\":678:697   */\n      tag_33\n        /* \"#utility.yul\":695:696   */\n      dup3\n        /* \"#utility.yul\":678:697   */\n      tag_22\n      jump\t// in\n    tag_33:\n        /* \"#utility.yul\":673:697   */\n      swap2\n      pop\n        /* \"#utility.yul\":711:730   */\n      tag_34\n        /* \"#utility.yul\":728:729   */\n      dup4\n        /* \"#utility.yul\":711:730   */\n      tag_22\n      jump\t// in\n    tag_34:\n        /* \"#utility.yul\":706:730   */\n      swap3\n      pop\n        /* \"#utility.yul\":753:754   */\n      dup3\n        /* \"#utility.yul\":750:751   */\n      dup3\n        /* \"#utility.yul\":746:755   */\n      add\n        /* \"#utility.yul\":739:755   */\n      swap1\n      pop\n        /* \"#utility.yul\":951:952   */\n      dup3\n        /* \"#utility.yul\":946:949   */\n      dup2\n        /* \"#utility.yul\":942:953   */\n      slt\n        /* \"#utility.yul\":935:954   */\n      iszero\n        /* \"#utility.yul\":931:932   */\n      0x00\n        /* \"#utility.yul\":928:929   */\n      dup4\n        /* \"#utility.yul\":924:933   */\n      slt\n        /* \"#utility.yul\":920:955   */\n      and\n        /* \"#utility.yul\":903:904   */\n      dup4\n        /* \"#utility.yul\":898:901   */\n      dup3\n        /* \"#utility.yul\":894:905   */\n      slt\n        /* \"#utility.yul\":889:890   */\n      0x00\n        /* \"#utility.yul\":886:887   */\n      dup5\n        /* \"#utility.yul\":882:891   */\n      slt\n        /* \"#utility.yul\":875:892   */\n      iszero\n        /* \"#utility.yul\":871:906   */\n      and\n        /* \"#utility.yul\":855:965   */\n      or\n        /* \"#utility.yul\":852:988   */\n      iszero\n      tag_35\n      jumpi\n        /* \"#utility.yul\":968:986   */\n      tag_36\n      tag_24\n      jump\t// in\n    tag_36:\n        /* \"#utility.yul\":852:988   */\n    tag_35:\n        /* \"#utility.yul\":620:995   */\n      swap3\n      swap2\n      pop\n      pop\n      jump\t// out\n\n    auxdata: 0xa2646970667358221220dcc6ab0451c4f9b852209907209298406cd92aaab10bd7cd557beef3a04360b064736f6c634300081a0033\n}\n",
				"bytecode": {
					"linkReferences": {},
					"object": "6080604052600a5f556014600155601e600255348015601c575f80fd5b506101ae8061002a5f395ff3fe608060405234801561000f575f80fd5b506004361061003f575f3560e01c8063663fd677146100435780638ee1aea314610061578063ee533b8b1461007f575b5f80fd5b61004b61009d565b60405161005891906100f1565b60405180910390f35b6100696100a2565b60405161007691906100f1565b60405180910390f35b6100876100b7565b60405161009491906100f1565b60405180910390f35b5f5481565b5f6001545f546100b29190610137565b905090565b5f6002546001545f546100ca9190610137565b6100d49190610137565b905090565b5f819050919050565b6100eb816100d9565b82525050565b5f6020820190506101045f8301846100e2565b92915050565b7f4e487b71000000000000000000000000000000000000000000000000000000005f52601160045260245ffd5b5f610141826100d9565b915061014c836100d9565b92508282019050828112155f8312168382125f8412151617156101725761017161010a565b5b9291505056fea2646970667358221220dcc6ab0451c4f9b852209907209298406cd92aaab10bd7cd557beef3a04360b064736f6c634300081a0033",
					"opcodes": "PUSH1 0x80 PUSH1 0x40 MSTORE PUSH1 0xA PUSH0 SSTORE PUSH1 0x14 PUSH1 0x1 SSTORE PUSH1 0x1E PUSH1 0x2 SSTORE CALLVALUE DUP1 ISZERO PUSH1 0x1C JUMPI PUSH0 DUP1 REVERT JUMPDEST POP PUSH2 0x1AE DUP1 PUSH2 0x2A PUSH0 CODECOPY PUSH0 RETURN INVALID PUSH1 0x80 PUSH1 0x40 MSTORE CALLVALUE DUP1 ISZERO PUSH2 0xF JUMPI PUSH0 DUP1 REVERT JUMPDEST POP PUSH1 0x4 CALLDATASIZE LT PUSH2 0x3F JUMPI PUSH0 CALLDATALOAD PUSH1 0xE0 SHR DUP1 PUSH4 0x663FD677 EQ PUSH2 0x43 JUMPI DUP1 PUSH4 0x8EE1AEA3 EQ PUSH2 0x61 JUMPI DUP1 PUSH4 0xEE533B8B EQ PUSH2 0x7F JUMPI JUMPDEST PUSH0 DUP1 REVERT JUMPDEST PUSH2 0x4B PUSH2 0x9D JUMP JUMPDEST PUSH1 0x40 MLOAD PUSH2 0x58 SWAP2 SWAP1 PUSH2 0xF1 JUMP JUMPDEST PUSH1 0x40 MLOAD DUP1 SWAP2 SUB SWAP1 RETURN JUMPDEST PUSH2 0x69 PUSH2 0xA2 JUMP JUMPDEST PUSH1 0x40 MLOAD PUSH2 0x76 SWAP2 SWAP1 PUSH2 0xF1 JUMP JUMPDEST PUSH1 0x40 MLOAD DUP1 SWAP2 SUB SWAP1 RETURN JUMPDEST PUSH2 0x87 PUSH2 0xB7 JUMP JUMPDEST PUSH1 0x40 MLOAD PUSH2 0x94 SWAP2 SWAP1 PUSH2 0xF1 JUMP JUMPDEST PUSH1 0x40 MLOAD DUP1 SWAP2 SUB SWAP1 RETURN JUMPDEST PUSH0 SLOAD DUP2 JUMP JUMPDEST PUSH0 PUSH1 0x1 SLOAD PUSH0 SLOAD PUSH2 0xB2 SWAP2 SWAP1 PUSH2 0x137 JUMP JUMPDEST SWAP1 POP SWAP1 JUMP JUMPDEST PUSH0 PUSH1 0x2 SLOAD PUSH1 0x1 SLOAD PUSH0 SLOAD PUSH2 0xCA SWAP2 SWAP1 PUSH2 0x137 JUMP JUMPDEST PUSH2 0xD4 SWAP2 SWAP1 PUSH2 0x137 JUMP JUMPDEST SWAP1 POP SWAP1 JUMP JUMPDEST PUSH0 DUP2 SWAP1 POP SWAP2 SWAP1 POP JUMP JUMPDEST PUSH2 0xEB DUP2 PUSH2 0xD9 JUMP JUMPDEST DUP3 MSTORE POP POP JUMP JUMPDEST PUSH0 PUSH1 0x20 DUP3 ADD SWAP1 POP PUSH2 0x104 PUSH0 DUP4 ADD DUP5 PUSH2 0xE2 JUMP JUMPDEST SWAP3 SWAP2 POP POP JUMP JUMPDEST PUSH32 0x4E487B7100000000000000000000000000000000000000000000000000000000 PUSH0 MSTORE PUSH1 0x11 PUSH1 0x4 MSTORE PUSH1 0x24 PUSH0 REVERT JUMPDEST PUSH0 PUSH2 0x141 DUP3 PUSH2 0xD9 JUMP JUMPDEST SWAP2 POP PUSH2 0x14C DUP4 PUSH2 0xD9 JUMP JUMPDEST SWAP3 POP DUP3 DUP3 ADD SWAP1 POP DUP3 DUP2 SLT ISZERO PUSH0 DUP4 SLT AND DUP4 DUP3 SLT PUSH0 DUP5 SLT ISZERO AND OR ISZERO PUSH2 0x172 JUMPI PUSH2 0x171 PUSH2 0x10A JUMP JUMPDEST JUMPDEST SWAP3 SWAP2 POP POP JUMP INVALID LOG2 PUSH5 0x6970667358 0x22 SLT KECCAK256 0xDC 0xC6 0xAB DIV MLOAD 0xC4 0xF9 0xB8 MSTORE KECCAK256 SWAP10 SMOD KECCAK256 SWAP3 SWAP9 BLOCKHASH PUSH13 0xD92AAAB10BD7CD557BEEF3A043 PUSH1 0xB0 PUSH5 0x736F6C6343 STOP ADDMOD BYTE STOP CALLER "
				},
				"gasEstimates": {
					"creation": {
						"codeDepositCost": "86000",
						"executionCost": "66450",
						"totalCost": "152450"
					},
					"external": {
						"getAllVal()": "infinite",
						"getAllVal2()": "infinite",
						"publicval()": "2402"
					}
				},
				"methodIdentifiers": {
					"getAllVal()": "ee533b8b",
					"getAllVal2()": "8ee1aea3",
					"publicval()": "663fd677"
				}
			},
			"storageLayout": {
				"storage": [
					{
						"astId": 4,
						"contract": "5_visibilityand inheritence.sol:Child",
						"label": "publicval",
						"offset": 0,
						"slot": "0",
						"type": "t_int256"
					},
					{
						"astId": 7,
						"contract": "5_visibilityand inheritence.sol:Child",
						"label": "internalval",
						"offset": 0,
						"slot": "1",
						"type": "t_int256"
					},
					{
						"astId": 10,
						"contract": "5_visibilityand inheritence.sol:Child",
						"label": "privateval",
						"offset": 0,
						"slot": "2",
						"type": "t_int256"
					}
				],
				"types": {
					"t_int256": {
						"encoding": "inplace",
						"label": "int256",
						"numberOfBytes": "32"
					}
				}
			},
			"userdoc": {
				"kind": "user",
				"methods": {},
				"version": 1
			}
		}
	}
}