{
	"5_visibilityand inheritence.sol": {
		"Parent": {
			"abi": [
				{
					"inputs": [],
					"name": "getAllVal",
					"outputs": [
						{
							"internalType": "int256",
							"name": "",
							"type": "int256"
						}
					],
					"stateMutability": "view",
					"type": "function"
				},
				{
					"inputs": [],
					"name": "publicval",
					"outputs": [
						{
							"internalType": "int256",
							"name": "",
							"type": "int256"
						}
					],
					"stateMutability": "view",
					"type": "function"
				}
			],
			"devdoc": {
				"kind": "dev",
				"methods": {},
				"version": 1
			},
			"evm": {
				"assembly": "    /* \"5_visibilityand inheritence.sol\":473:700  contract Parent{... */\n  mstore(0x40, 0x80)\n    /* \"5_visibilityand inheritence.sol\":517:519  10 */\n  0x0a\n    /* \"5_visibilityand inheritence.sol\":495:519  int public publicval =10 */\n  0x00\n  sstore\n    /* \"5_visibilityand inheritence.sol\":551:553  20 */\n  0x14\n    /* \"5_visibilityand inheritence.sol\":526:553  int internal internalval=20 */\n  0x01\n  sstore\n    /* \"5_visibilityand inheritence.sol\":583:585  30 */\n  0x1e\n    /* \"5_visibilityand inheritence.sol\":560:585  int private privateval=30 */\n  0x02\n  sstore\n    /* \"5_visibilityand inheritence.sol\":473:700  contract Parent{... */\n  callvalue\n  dup1\n  iszero\n  tag_1\n  jumpi\n  0x00\n  dup1\n  revert\ntag_1:\n  pop\n  dataSize(sub_0)\n  dup1\n  dataOffset(sub_0)\n  0x00\n  codecopy\n  0x00\n  return\nstop\n\nsub_0: assembly {\n        /* \"5_visibilityand inheritence.sol\":473:700  contract Parent{... */\n      mstore(0x40, 0x80)\n      callvalue\n      dup1\n      iszero\n      tag_1\n      jumpi\n      0x00\n      dup1\n      revert\n    tag_1:\n      pop\n      jumpi(tag_2, lt(calldatasize, 0x04))\n      shr(0xe0, calldataload(0x00))\n      dup1\n      0x663fd677\n      eq\n      tag_3\n      jumpi\n      dup1\n      0xee533b8b\n      eq\n      tag_4\n      jumpi\n    tag_2:\n      0x00\n      dup1\n      revert\n        /* \"5_visibilityand inheritence.sol\":495:519  int public publicval =10 */\n    tag_3:\n      tag_5\n      tag_6\n      jump\t// in\n    tag_5:\n      mload(0x40)\n      tag_7\n      swap2\n      swap1\n      tag_8\n      jump\t// in\n    tag_7:\n      mload(0x40)\n      dup1\n      swap2\n      sub\n      swap1\n      return\n        /* \"5_visibilityand inheritence.sol\":594:697  function getAllVal() public view returns(int){... */\n    tag_4:\n      tag_9\n      tag_10\n      jump\t// in\n    tag_9:\n      mload(0x40)\n      tag_11\n      swap2\n      swap1\n      tag_8\n      jump\t// in\n    tag_11:\n      mload(0x40)\n      dup1\n      swap2\n      sub\n      swap1\n      return\n        /* \"5_visibilityand inheritence.sol\":495:519  int public publicval =10 */\n    tag_6:\n      sload(0x00)\n      dup2\n      jump\t// out\n        /* \"5_visibilityand inheritence.sol\":594:697  function getAllVal() public view returns(int){... */\n    tag_10:\n        /* \"5_visibilityand inheritence.sol\":635:638  int */\n      0x00\n        /* \"5_visibilityand inheritence.sol\":679:689  privateval */\n      sload(0x02)\n        /* \"5_visibilityand inheritence.sol\":667:678  internalval */\n      sload(0x01)\n        /* \"5_visibilityand inheritence.sol\":657:666  publicval */\n      sload(0x00)\n        /* \"5_visibilityand inheritence.sol\":657:678  publicval+internalval */\n      tag_13\n      swap2\n      swap1\n      tag_14\n      jump\t// in\n    tag_13:\n        /* \"5_visibilityand inheritence.sol\":657:689  publicval+internalval+privateval */\n      tag_15\n      swap2\n      swap1\n      tag_14\n      jump\t// in\n    tag_15:\n        /* \"5_visibilityand inheritence.sol\":650:689  return publicval+internalval+privateval */\n      swap1\n      pop\n        /* \"5_visibilityand inheritence.sol\":594:697  function getAllVal() public view returns(int){... */\n      swap1\n      jump\t// out\n        /* \"#utility.yul\":7:83   */\n    tag_16:\n        /* \"#utility.yul\":43:50   */\n      0x00\n        /* \"#utility.yul\":72:77   */\n      dup2\n        /* \"#utility.yul\":61:77   */\n      swap1\n      pop\n        /* \"#utility.yul\":7:83   */\n      swap2\n      swap1\n      pop\n      jump\t// out\n        /* \"#utility.yul\":89:204   */\n    tag_17:\n        /* \"#utility.yul\":174:197   */\n      tag_22\n        /* \"#utility.yul\":191:196   */\n      dup2\n        /* \"#utility.yul\":174:197   */\n      tag_16\n      jump\t// in\n    tag_22:\n        /* \"#utility.yul\":169:172   */\n      dup3\n        /* \"#utility.yul\":162:198   */\n      mstore\n        /* \"#utility.yul\":89:204   */\n      pop\n      pop\n      jump\t// out\n        /* \"#utility.yul\":210:428   */\n    tag_8:\n        /* \"#utility.yul\":301:305   */\n      0x00\n        /* \"#utility.yul\":339:341   */\n      0x20\n        /* \"#utility.yul\":328:337   */\n      dup3\n        /* \"#utility.yul\":324:342   */\n      add\n        /* \"#utility.yul\":316:342   */\n      swap1\n      pop\n        /* \"#utility.yul\":352:421   */\n      tag_24\n        /* \"#utility.yul\":418:419   */\n      0x00\n        /* \"#utility.yul\":407:416   */\n      dup4\n        /* \"#utility.yul\":403:420   */\n      add\n        /* \"#utility.yul\":394:400   */\n      dup5\n        /* \"#utility.yul\":352:421   */\n      tag_17\n      jump\t// in\n    tag_24:\n        /* \"#utility.yul\":210:428   */\n      swap3\n      swap2\n      pop\n      pop\n      jump\t// out\n        /* \"#utility.yul\":434:614   */\n    tag_18:\n        /* \"#utility.yul\":482:559   */\n      0x4e487b7100000000000000000000000000000000000000000000000000000000\n        /* \"#utility.yul\":479:480   */\n      0x00\n        /* \"#utility.yul\":472:560   */\n      mstore\n        /* \"#utility.yul\":579:583   */\n      0x11\n        /* \"#utility.yul\":576:577   */\n      0x04\n        /* \"#utility.yul\":569:584   */\n      mstore\n        /* \"#utility.yul\":603:607   */\n      0x24\n        /* \"#utility.yul\":600:601   */\n      0x00\n        /* \"#utility.yul\":593:608   */\n      revert\n        /* \"#utility.yul\":620:995   */\n    tag_14:\n        /* \"#utility.yul\":659:662   */\n      0x00\n        /* \"#utility.yul\":678:697   */\n      tag_27\n        /* \"#utility.yul\":695:696   */\n      dup3\n        /* \"#utility.yul\":678:697   */\n      tag_16\n      jump\t// in\n    tag_27:\n        /* \"#utility.yul\":673:697   */\n      swap2\n      pop\n        /* \"#utility.yul\":711:730   */\n      tag_28\n        /* \"#utility.yul\":728:729   */\n      dup4\n        /* \"#utility.yul\":711:730   */\n      tag_16\n      jump\t// in\n    tag_28:\n        /* \"#utility.yul\":706:730   */\n      swap3\n      pop\n        /* \"#utility.yul\":753:754   */\n      dup3\n        /* \"#utility.yul\":750:751   */\n      dup3\n        /* \"#utility.yul\":746:755   */\n      add\n        /* \"#utility.yul\":739:755   */\n      swap1\n      pop\n        /* \"#utility.yul\":951:952   */\n      dup3\n        /* \"#utility.yul\":946:949   */\n      dup2\n        /* \"#utility.yul\":942:953   */\n      slt\n        /* \"#utility.yul\":935:954   */\n      iszero\n        /* \"#utility.yul\":931:932   */\n      0x00\n        /* \"#utility.yul\":928:929   */\n      dup4\n        /* \"#utility.yul\":924:933   */\n      slt\n        /* \"#utility.yul\":920:955   */\n      and\n        /* \"#utility.yul\":903:904   */\n      dup4\n        /* \"#utility.yul\":898:901   */\n      dup3\n        /* \"#utility.yul\":894:905   */\n      slt\n        /* \"#utility.yul\":889:890   */\n      0x00\n        /* \"#utility.yul\":886:887   */\n      dup5\n        /* \"#utility.yul\":882:891   */\n      slt\n        /* \"#utility.yul\":875:892   */\n      iszero\n        /* \"#utility.yul\":871:906   */\n      and\n        /* \"#utility.yul\":855:965   */\n      or\n        /* \"#utility.yul\":852:988   */\n      iszero\n      tag_29\n      jumpi\n        /* \"#utility.yul\":968:986   */\n      tag_30\n      tag_18\n      jump\t// in\n    tag_30:\n        /* \"#utility.yul\":852:988   */\n    tag_29:\n        /* \"#utility.yul\":620:995   */\n      swap3\n      swap2\n      pop\n      pop\n      jump\t// out\n\n    auxdata: 0xa264697066735822122011f40868af7db1471459afd6d8ef6fed450571d98ebf04532ceeae060828228464736f6c634300081a0033\n}\n",
				"bytecode": {
					"linkReferences": {},
					"object": "6080604052600a5f556014600155601e600255348015601c575f80fd5b506101708061002a5f395ff3fe608060405234801561000f575f80fd5b5060043610610034575f3560e01c8063663fd67714610038578063ee533b8b14610056575b5f80fd5b610040610074565b60405161004d91906100b3565b60405180910390f35b61005e610079565b60405161006b91906100b3565b60405180910390f35b5f5481565b5f6002546001545f5461008c91906100f9565b61009691906100f9565b905090565b5f819050919050565b6100ad8161009b565b82525050565b5f6020820190506100c65f8301846100a4565b92915050565b7f4e487b71000000000000000000000000000000000000000000000000000000005f52601160045260245ffd5b5f6101038261009b565b915061010e8361009b565b92508282019050828112155f8312168382125f841215161715610134576101336100cc565b5b9291505056fea264697066735822122011f40868af7db1471459afd6d8ef6fed450571d98ebf04532ceeae060828228464736f6c634300081a0033",
					"opcodes": "PUSH1 0x80 PUSH1 0x40 MSTORE PUSH1 0xA PUSH0 SSTORE PUSH1 0x14 PUSH1 0x1 SSTORE PUSH1 0x1E PUSH1 0x2 SSTORE CALLVALUE DUP1 ISZERO PUSH1 0x1C JUMPI PUSH0 DUP1 REVERT JUMPDEST POP PUSH2 0x170 DUP1 PUSH2 0x2A PUSH0 CODECOPY PUSH0 RETURN INVALID PUSH1 0x80 PUSH1 0x40 MSTORE CALLVALUE DUP1 ISZERO PUSH2 0xF JUMPI PUSH0 DUP1 REVERT JUMPDEST POP PUSH1 0x4 CALLDATASIZE LT PUSH2 0x34 JUMPI PUSH0 CALLDATALOAD PUSH1 0xE0 SHR DUP1 PUSH4 0x663FD677 EQ PUSH2 0x38 JUMPI DUP1 PUSH4 0xEE533B8B EQ PUSH2 0x56 JUMPI JUMPDEST PUSH0 DUP1 REVERT JUMPDEST PUSH2 0x40 PUSH2 0x74 JUMP JUMPDEST PUSH1 0x40 MLOAD PUSH2 0x4D SWAP2 SWAP1 PUSH2 0xB3 JUMP JUMPDEST PUSH1 0x40 MLOAD DUP1 SWAP2 SUB SWAP1 RETURN JUMPDEST PUSH2 0x5E PUSH2 0x79 JUMP JUMPDEST PUSH1 0x40 MLOAD PUSH2 0x6B SWAP2 SWAP1 PUSH2 0xB3 JUMP JUMPDEST PUSH1 0x40 MLOAD DUP1 SWAP2 SUB SWAP1 RETURN JUMPDEST PUSH0 SLOAD DUP2 JUMP JUMPDEST PUSH0 PUSH1 0x2 SLOAD PUSH1 0x1 SLOAD PUSH0 SLOAD PUSH2 0x8C SWAP2 SWAP1 PUSH2 0xF9 JUMP JUMPDEST PUSH2 0x96 SWAP2 SWAP1 PUSH2 0xF9 JUMP JUMPDEST SWAP1 POP SWAP1 JUMP JUMPDEST PUSH0 DUP2 SWAP1 POP SWAP2 SWAP1 POP JUMP JUMPDEST PUSH2 0xAD DUP2 PUSH2 0x9B JUMP JUMPDEST DUP3 MSTORE POP POP JUMP JUMPDEST PUSH0 PUSH1 0x20 DUP3 ADD SWAP1 POP PUSH2 0xC6 PUSH0 DUP4 ADD DUP5 PUSH2 0xA4 JUMP JUMPDEST SWAP3 SWAP2 POP POP JUMP JUMPDEST PUSH32 0x4E487B7100000000000000000000000000000000000000000000000000000000 PUSH0 MSTORE PUSH1 0x11 PUSH1 0x4 MSTORE PUSH1 0x24 PUSH0 REVERT JUMPDEST PUSH0 PUSH2 0x103 DUP3 PUSH2 0x9B JUMP JUMPDEST SWAP2 POP PUSH2 0x10E DUP4 PUSH2 0x9B JUMP JUMPDEST SWAP3 POP DUP3 DUP3 ADD SWAP1 POP DUP3 DUP2 SLT ISZERO PUSH0 DUP4 SLT AND DUP4 DUP3 SLT PUSH0 DUP5 SLT ISZERO AND OR ISZERO PUSH2 0x134 JUMPI PUSH2 0x133 PUSH2 0xCC JUMP JUMPDEST JUMPDEST SWAP3 SWAP2 POP POP JUMP INVALID LOG2 PUSH5 0x6970667358 0x22 SLT KECCAK256 GT DELEGATECALL ADDMOD PUSH9 0xAF7DB1471459AFD6D8 0xEF PUSH16 0xED450571D98EBF04532CEEAE06082822 DUP5 PUSH5 0x736F6C6343 STOP ADDMOD BYTE STOP CALLER "
				},
				"gasEstimates": {
					"creation": {
						"codeDepositCost": "73600",
						"executionCost": "66438",
						"totalCost": "140038"
					},
					"external": {
						"getAllVal()": "infinite",
						"publicval()": "2402"
					}
				},
				"methodIdentifiers": {
					"getAllVal()": "ee533b8b",
					"publicval()": "663fd677"
				}
			},
			"storageLayout": {
				"storage": [
					{
						"astId": 4,
						"contract": "5_visibilityand inheritence.sol:Parent",
						"label": "publicval",
						"offset": 0,
						"slot": "0",
						"type": "t_int256"
					},
					{
						"astId": 7,
						"contract": "5_visibilityand inheritence.sol:Parent",
						"label": "internalval",
						"offset": 0,
						"slot": "1",
						"type": "t_int256"
					},
					{
						"astId": 10,
						"contract": "5_visibilityand inheritence.sol:Parent",
						"label": "privateval",
						"offset": 0,
						"slot": "2",
						"type": "t_int256"
					}
				],
				"types": {
					"t_int256": {
						"encoding": "inplace",
						"label": "int256",
						"numberOfBytes": "32"
					}
				}
			},
			"userdoc": {
				"kind": "user",
				"methods": {},
				"version": 1
			}
		}
	}
}